{
  "contractName": "Faucet",
  "abi": [
    {
      "inputs": [],
      "name": "numOfFunders",
      "outputs": [
        {
          "internalType": "uint32",
          "name": "",
          "type": "uint32"
        }
      ],
      "stateMutability": "view",
      "type": "function",
      "constant": true
    },
    {
      "inputs": [],
      "name": "owner",
      "outputs": [
        {
          "internalType": "address",
          "name": "",
          "type": "address"
        }
      ],
      "stateMutability": "view",
      "type": "function",
      "constant": true
    },
    {
      "stateMutability": "payable",
      "type": "receive",
      "payable": true
    },
    {
      "inputs": [],
      "name": "addFunds",
      "outputs": [],
      "stateMutability": "payable",
      "type": "function",
      "payable": true
    },
    {
      "inputs": [
        {
          "internalType": "uint128",
          "name": "withdrawAmount",
          "type": "uint128"
        }
      ],
      "name": "withdraw",
      "outputs": [],
      "stateMutability": "nonpayable",
      "type": "function"
    },
    {
      "inputs": [],
      "name": "getAllFunders",
      "outputs": [
        {
          "internalType": "address[]",
          "name": "",
          "type": "address[]"
        }
      ],
      "stateMutability": "view",
      "type": "function",
      "constant": true
    },
    {
      "inputs": [
        {
          "internalType": "uint8",
          "name": "index",
          "type": "uint8"
        }
      ],
      "name": "getFundersAtIndex",
      "outputs": [
        {
          "internalType": "address",
          "name": "",
          "type": "address"
        }
      ],
      "stateMutability": "view",
      "type": "function",
      "constant": true
    }
  ],
  "bytecode": "0x608060405234801561001057600080fd5b50336000806101000a81548173ffffffffffffffffffffffffffffffffffffffff021916908373ffffffffffffffffffffffffffffffffffffffff160217905550610919806100606000396000f3fe6080604052600436106100595760003560e01c806302387a7b146100655780636fbbb55d1461008e5780638da5cb5b146100b9578063a26759cb146100e4578063af7f2c9b146100ee578063f388b2661461011957610060565b3661006057005b600080fd5b34801561007157600080fd5b5061008c60048036038101906100879190610550565b610156565b005b34801561009a57600080fd5b506100a3610217565b6040516100b0919061066d565b60405180910390f35b3480156100c557600080fd5b506100ce61033c565b6040516100db919061069e565b60405180910390f35b6100ec610360565b005b3480156100fa57600080fd5b506101036104ad565b60405161011091906106d8565b60405180910390f35b34801561012557600080fd5b50610140600480360381019061013b919061072c565b6104c3565b60405161014d919061069e565b60405180910390f35b806fffffffffffffffffffffffffffffffff166e13426172c74d822b878fe80000000081106101ba576040517f08c379a00000000000000000000000000000000000000000000000000000000081526004016101b1906107b6565b60405180910390fd5b3373ffffffffffffffffffffffffffffffffffffffff166108fc836fffffffffffffffffffffffffffffffff169081150290604051600060405180830381858888f19350505050158015610212573d6000803e3d6000fd5b505050565b606060008060149054906101000a900463ffffffff1663ffffffff1667ffffffffffffffff81111561024c5761024b6107d6565b5b60405190808252806020026020018201604052801561027a5781602001602082028036833780820191505090505b50905060005b600060149054906101000a900463ffffffff1663ffffffff16811015610334576002600082815260200190815260200160002060009054906101000a900473ffffffffffffffffffffffffffffffffffffffff168282815181106102e7576102e6610805565b5b602002602001019073ffffffffffffffffffffffffffffffffffffffff16908173ffffffffffffffffffffffffffffffffffffffff1681525050808061032c9061086d565b915050610280565b508091505090565b60008054906101000a900473ffffffffffffffffffffffffffffffffffffffff1681565b6000339050600160008273ffffffffffffffffffffffffffffffffffffffff1673ffffffffffffffffffffffffffffffffffffffff16815260200190815260200160002060009054906101000a900460ff166104aa57600080601481819054906101000a900463ffffffff16809291906103d9906108b6565b91906101000a81548163ffffffff021916908363ffffffff16021790555063ffffffff16905060018060008473ffffffffffffffffffffffffffffffffffffffff1673ffffffffffffffffffffffffffffffffffffffff16815260200190815260200160002060006101000a81548160ff021916908315150217905550816002600083815260200190815260200160002060006101000a81548173ffffffffffffffffffffffffffffffffffffffff021916908373ffffffffffffffffffffffffffffffffffffffff160217905550505b50565b600060149054906101000a900463ffffffff1681565b6000600260008360ff16815260200190815260200160002060009054906101000a900473ffffffffffffffffffffffffffffffffffffffff169050919050565b600080fd5b60006fffffffffffffffffffffffffffffffff82169050919050565b61052d81610508565b811461053857600080fd5b50565b60008135905061054a81610524565b92915050565b60006020828403121561056657610565610503565b5b60006105748482850161053b565b91505092915050565b600081519050919050565b600082825260208201905092915050565b6000819050602082019050919050565b600073ffffffffffffffffffffffffffffffffffffffff82169050919050565b60006105d4826105a9565b9050919050565b6105e4816105c9565b82525050565b60006105f683836105db565b60208301905092915050565b6000602082019050919050565b600061061a8261057d565b6106248185610588565b935061062f83610599565b8060005b8381101561066057815161064788826105ea565b975061065283610602565b925050600181019050610633565b5085935050505092915050565b60006020820190508181036000830152610687818461060f565b905092915050565b610698816105c9565b82525050565b60006020820190506106b3600083018461068f565b92915050565b600063ffffffff82169050919050565b6106d2816106b9565b82525050565b60006020820190506106ed60008301846106c9565b92915050565b600060ff82169050919050565b610709816106f3565b811461071457600080fd5b50565b60008135905061072681610700565b92915050565b60006020828403121561074257610741610503565b5b600061075084828501610717565b91505092915050565b600082825260208201905092915050565b7f576974686472617720416d6f756e742065786365656465640000000000000000600082015250565b60006107a0601883610759565b91506107ab8261076a565b602082019050919050565b600060208201905081810360008301526107cf81610793565b9050919050565b7f4e487b7100000000000000000000000000000000000000000000000000000000600052604160045260246000fd5b7f4e487b7100000000000000000000000000000000000000000000000000000000600052603260045260246000fd5b7f4e487b7100000000000000000000000000000000000000000000000000000000600052601160045260246000fd5b6000819050919050565b600061087882610863565b91507fffffffffffffffffffffffffffffffffffffffffffffffffffffffffffffffff8214156108ab576108aa610834565b5b600182019050919050565b60006108c1826106b9565b915063ffffffff8214156108d8576108d7610834565b5b60018201905091905056fea264697066735822122058ad2d64bff26a052c32a8cd454fc70cadad5781f4548b06ca0b0bb2fde4815664736f6c634300080b0033",
  "immutableReferences": {},
  "source": "// SPDX-License-Identifier: MIT\n// const instance = await Faucet.deployed()\n// instance.addFunds()\n// instance.addFunds ({from:accounts[0], value: \"2000000\"})\n\npragma solidity >=0.4.22 <0.9.0;\n\nimport \"./Owned.sol\";\nimport \"./Logger.sol\";\n\ncontract Faucet is Owned, Logger{\n    uint32 public numOfFunders;\n    mapping (address => bool) private funders;\n    mapping (uint => address) private lutFunders;\n\n    modifier limitWithdraw(uint withdrawAmount) {\n        require(\n            withdrawAmount < 100000000000000000 ether,\n            \"Withdraw Amount exceeded\"\n        );\n        _;\n    }\n\n    receive() external payable {}\n\n    function addFunds() payable external {\n        address funder = msg.sender;\n\n        if(!funders[funder]) {\n            uint index = numOfFunders++;\n            funders[funder] = true;\n            lutFunders[index] = funder;\n        }\n    }\n\n    function withdraw(uint128 withdrawAmount) external limitWithdraw(withdrawAmount) {\n        payable(msg.sender).transfer(withdrawAmount);\n        \n    }\n\n    function getAllFunders() external view returns (address[] memory) {\n      address[] memory _funders = new address[](numOfFunders);\n\n        for (uint i = 0; i < numOfFunders; i++) {\n          _funders[i] = lutFunders[i];\n        }\n\n        return _funders;\n    }\n\n    function getFundersAtIndex(uint8 index) external view returns(address) {\n        return lutFunders[index];\n    }\n \n}\n",
  "sourcePath": "/home/sidd/projects/personal/faucet/contracts/FaucetContract.sol",
  "compiler": {
    "name": "solc",
    "version": "0.8.11+commit.d7f03943.Emscripten.clang"
  },
  "schemaVersion": "3.4.5",
  "updatedAt": "2022-04-16T09:34:43.833Z",
  "networkType": "ethereum",
  "devdoc": {
    "kind": "dev",
    "methods": {},
    "version": 1
  },
  "userdoc": {
    "kind": "user",
    "methods": {},
    "version": 1
  }
}